:020000040800F2
:10000000F01D002099010008A70E00084B0E000803
:10001000A50E0008390200080111000800000000C8
:1000200000000000000000000000000001010008C6
:100030003B0200080000000045010008A90E00086E
:10004000B3010008B3010008B3010008B3010008C0
:10005000B3010008B3010008B3010008B3010008B0
:10006000B3010008B3010008B3010008B3010008A0
:10007000B3010008B3010008B3010008B301000890
:10008000B3010008B3010008B3010008B301000880
:10009000B3010008B3010008B3010008B301000870
:1000A000B30100086D0F0008B3010008B301000898
:1000B000B3010008B3010008B3010008B301000850
:1000C000B3010008B3010008B3010008B301000840
:1000D000B3010008B3010008B3010008B301000830
:1000E000B3010008B3010008B3010008DFF80CD029
:1000F00000F090F80048004741110008F01D002072
:10010000224B19680868B0E8F00F80F30988BFF344
:100110006F8F4FF0000080F311884EF00D0E704786
:100120000000000006480068006880F3088862B696
:1001300061B6BFF34F8FBFF36F8F00DF00BF00BF0B
:1001400008ED00E0EFF30980BFF36F8F0F4B1A68E3
:1001500020E9F00F106008B54FF0500080F31188CF
:10016000BFF34F8FBFF36F8F02F024F94FF0000001
:1001700080F31188BDE8084019680868B0E8F00FFE
:1001800080F30988BFF36F8F704700BF2000002005
:10019000EFF3058070470000064880470648004797
:1001A000FEE7FEE7FEE7FEE7FEE7FEE7FEE7FEE727
:1001B000FEE7FEE7250F0008ED00000840EA010316
:1001C0009B0703D009E008C9121F08C0042AFAD20D
:1001D00003E011F8013B00F8013B521EF9D27047D1
:1001E000D2B201E000F8012B491EFBD27047002279
:1001F000F6E710B513460A4604461946FFF7F0FF26
:10020000204610BD421C10F8011B0029FBD1801AAA
:1002100070470000064C074D06E0E06840F001031F
:1002200094E8070098471034AC42F6D3FFF762FF1A
:100230004432000864320008FEE770472DE9F84FA9
:10024000DFF8B891002409F1040A0AF1040B2346EF
:100250000F270BF1040EC9E00125A5402A40AA4250
:100260007DD1674ED1F804C0ACEB0608B44532D05E
:1002700014DCBCF1030F3AD009DCBCF1000F2AD02A
:10028000BCF1010F1CD0BCF1020F31D11DE0BCF15B
:10029000110F17D0BCF1120F2AD119E0B8F5881F41
:1002A00019D006DCB8F5803F15D0B8F5801F1FD1F6
:1002B00011E0B8F5001F0ED0B8F5041F18D10AE000
:1002C000CB6815E0CB681B1D12E0CB6808330FE04C
:1002D000CB680C330CE08B682BB1012B4FF008037B
:1002E00003D0456104E0042302E0056100E000233F
:1002F000FF2A01D8064601E000F104064FEA840512
:1003000001D9A5F12005D6F8008007FA05FC28EAF6
:100310000C0803FA05F548EA0508C6F800804D68A0
:10032000ED0062D5374DAE6946F00106AE61AD69AC
:1003300024F0030605F001050095334D06EB050C8E
:10034000DCF80850A607360F07FA06F825EA080574
:10035000DFF8B880404503D14FF0000817E044E0D3
:10036000DFF8AC80404502D14FF001080FE0DFF824
:10037000A480404502D14FF0020808E0DFF89880E1
:10038000404502D14FF0030801E04FF0040808FA9D
:1003900006F848EA0508CCF808804D68D9F80060EE
:1003A000ED034D4601D5164300E096432E604D689F
:1003B000DAF80060AD03554601D5164300E09643D8
:1003C0002E604D68DBF80060ED025D4601D51643F6
:1003D00000E096432E604D68DEF80060AD02754681
:1003E00001D5164300E096432E60641C0D682A4632
:1003F000E5407FF431AFBDE8F88F00000004014014
:1004000000001110001002400000014000080140EF
:10041000000C0140001001400014014080680840B9
:1004200000D001207047000001488068704700003C
:1004300010000020024881680278114481607047F2
:1004400010000020074810B5016841F0100101605C
:10045000032000F095F8002000F006F800F03EF8C8
:10046000002010BD0020024000B5014687B00022E8
:10047000192000F065F8192000F054F8134881693C
:1004800041F400618161806905A900F40060069073
:10049000684600F01DF900F04BF90D490D4AB0FB1C
:1004A000F1F10D48491E0260416040F2E73200213F
:1004B000C0E90321816000F013FB10B1012007B0F7
:1004C00000BD054800F028FBF9E7000000100240DD
:1004D00040420F00002C0140D80000200F4808B512
:1004E000816941F001018161816901F0010100919F
:1004F000C16941F08051C161C069002200F08050A3
:1005000000900F21901E00F01BF80548416821F073
:10051000E06141F08061416008BD000000100240D0
:1005200000000140002809DB00F01F02012191407A
:100530004009800000F1E020C0F800117047000081
:10054000F0B40E4B1B680C46C3F30223C3F107053E
:10055000042D00D90425191D072901D2002300E02C
:10056000DB1E012606FA05F1491E214099409E40F6
:10057000761E16403143F0BC00F0C3BD0CED00E028
:10058000064900F0070208684FF6FF03184040EAEA
:100590000220034A10430860704700000CED00E0A1
:1005A0000000FA052DE9F0470F46050061D0434EE3
:1005B000306800F00700B84209D2306820F0070028
:1005C00038433060306800F00700B84251D12868E5
:1005D0003B4C810712D5400703D5606840F4E060CA
:1005E00060602878000703D5606840F46050606060
:1005F0006068A96820F0F000084360602878C007B0
:1006000028D06868012810D02168022810D08907F6
:1006100000292EDA616821F0030101436160FFF7D0
:1006200003FF804641F288390DE021688903EFE736
:100630008901EDE7FFF7F8FEA0EB0801494502D973
:100640000320BDE8F0876068696800F00C00B0EB3B
:10065000810FEFD1306800F00700B8420BD9306845
:1006600020F0070038433060306800F00700B842DF
:1006700001D00120E5E72878400705D56068E968E2
:1006800020F4E060084360602878000706D56068C1
:10069000296920F4605040EAC100606000F058F819
:1006A0006168084AC1F30311515CC84006490860FB
:1006B00006480068FFF7D8FE0020C2E7002002408D
:1006C00000100240F83100081C0000201400002037
:1006D0000F2202600C4A536803F00303436053681F
:1006E00003F0F0038360536803F4E063C36052686F
:1006F0004FF4E06303EAD20202610448006800F0AC
:10070000070008607047000000100240002002400F
:100710000448054900684968044AC1F30221515C54
:10072000C84070471C00002000100240083200083A
:100730000448054900684968044AC1F3C221515C74
:10074000C84070471C00002000100240083200081A
:1007500012A185B00FC98DE80F0014A0144A0068DB
:1007600004905168134801F00C03042B10D0082B9F
:100770000ED1C1F38343C9031DF803000AD55168A4
:1007800004AAC1F34041515C0A4A5043B0FBF1F066
:1007900005B0704708494843FAE700000203040522
:1007A000060708090A0B0C0D0E0F101001020000BD
:1007B0000010024000127A0000093D002DE9F84FB8
:1007C000040070D02078C04DC00749D06868C0F3DD
:1007D0008100012807D06868C0F38100022809D190
:1007E0006868C00306D52868800339D5606800288A
:1007F000E7D035E06068B0F5803F0BD010B1B0F5C0
:10080000A02F11D0286820F480302860286820F4B8
:10081000802002E0286840F480302860606890B151
:10082000FFF702FE06460AE0286840F480202860B0
:10083000F0E700BFFFF7F8FD801B642873D8286835
:100840008003F7D50CE0FFF7EFFD064605E000BF9B
:10085000FFF7EAFD801B6428F0D828688003F7D4EE
:1008600020789A4E80074FF001094FF0000839D5E3
:10087000686810F00C0F07D06868C0F38100022888
:1008800009D16868C00306D42868800714D5206998
:10089000012808D110E02069B0B1C6F80090FFF738
:1008A000C3FD074605E00AE1FFF7BEFDC01B0228B5
:1008B000C4D828688007F7D52868616920F0F80057
:1008C00040EAC10028600DE0C6F80080FFF7ACFDEB
:1008D000074604E0FFF7A8FDC01B022823D82868BC
:1008E0008007F7D4207800072CD57948A169D9B1C1
:1008F000C0F80090FFF798FD074604E0FFF794FD6D
:10090000C01B02280FD8686A8007F7D571484FF4DA
:10091000FA510068B0FBF1F0009000BF0098411E52
:100920000091FAD20EE080E0C0F80080FFF77CFD75
:10093000074604E0FFF778FDC01B022875D8686AF7
:100940008007F7D42078400760D5E8690027C00009
:1009500008D4E86940F08050E861E869012700F0B8
:10096000805000905C480168C90513D40168834633
:1009700041F480710160FFF757FD824606E000BF39
:10098000FFF752FDA0EB0A0064284ED8DBF8000008
:10099000C005F5D5E06801280AD008B1052813D0B4
:1009A000286A20F001002862286A20F0040002E092
:1009B000286A40F001002862E06841F2883B98B163
:1009C000FFF732FD82460BE0286A40F004002862FF
:1009D000EEE700BFFFF728FDA0EB0A0159455AD802
:1009E000286A8007F6D50CE0FFF71EFD824605E079
:1009F000FFF71AFDA0EB0A0159454CD8286A800779
:100A0000F6D41FB1E86920F08050E861E06988B34E
:100A10006968C1F38101022944D00228C6F86080C8
:100A200004D0FFF701FD044638E034E0FFF7FCFC9A
:100A3000074604E0FFF7F8FCC01B02282BD8286803
:100A40008001F7D4206AB0F5803F05D16868A168BD
:100A500020F4003008436860D4E90801084369685D
:100A600021F4741108436860C6F86090FFF7DCFC5D
:100A7000044606E025E000BFFFF7D6FC001B022875
:100A800009D828688001F7D51BE000BFFFF7CCFC30
:100A9000001B022802D90320BDE8F88F28688001D6
:100AA000F4D40EE00128F7D06868226A00F480319F
:100AB000914204D1616A00F47010884201D0012093
:100AC000EAE70020E8E70000001002400000424290
:100AD000800442421C0000200070004070477047B4
:100AE00010B5040003D094F83D0010B107E00120D8
:100AF00010BD002084F83C00204600F00CF80220D5
:100B000084F83D00211D206800F036FA012084F8A9
:100B10003D00002010BD70470168CA6842F0010224
:100B2000CA600068816801F00701062903D00168E6
:100B300041F00101016000207047704770B5044624
:100B4000006801694FF00005C943890715D4C168E1
:100B5000C943890711D4E91E01610120207720686B
:100B600080698007204602D0FFF7E7FF04E000F02D
:100B700098F8204600F096F8257720680169C94367
:100B8000490717D4C168C943490713D46FF004015A
:100B90000161022020772068806910F4407F2046A0
:100BA00002D0FFF7CAFF04E000F07BF8204600F017
:100BB00079F8257720680169C943090716D4C16807
:100BC000C943090712D46FF008010161042020779E
:100BD0002068C0698007204602D0FFF7AEFF04E01E
:100BE00000F05FF8204600F05DF825772068016985
:100BF000C943C90617D4C168C943C90613D46FF0E5
:100C000010010161082020772068C06910F4407F3E
:100C1000204602D0FFF791FF04E000F042F82046A2
:100C200000F040F8257720680169C943C90708D159
:100C3000C168C943C90704D1891E0161204600F07B
:100C400033F820680169C943090609D4C168C9435A
:100C5000090605D46FF0800101612046FFF73EFFD1
:100C600020680169C943490609D4C168C9434906D6
:100C700005D46FF040010161204600F01FF82068A4
:100C80000169C94389060BD4C168C943890607D4E1
:100C90006FF0200101612046BDE87040FFF71FBFE3
:100CA00070BD70477047000000680349884201D159
:100CB000FFF7C0BB70470000002C0140704770B5C3
:100CC000040004D094F83900002510B106E001209A
:100CD00070BD84F83850204600F022F8242084F8B3
:100CE00039002068C16821F40051C160204600F03D
:100CF00079F92068016921F4904101612068416916
:100D000021F02A0141612068C16841F40051C160AD
:100D1000E563202084F8390084F83A00002070BD93
:100D200030B585B0002400940194029403940068C7
:100D30001449884223D11448C16941F40031C1618A
:100D4000C16901F400310491816941F004018161BC
:100D500080690E4D00F004000490042000900220F1
:100D600001900320039069462846FFF767FA0820A0
:100D7000CDE90004694628460294FFF75FFA05B002
:100D800030BD000000440040001002400008014057
:100D90002DE9F843044690F839001F4616460D46E3
:100DA000202850D1A5B19EB194F8380001284AD02E
:100DB000012084F838004FF00008C4F83C8021205E
:100DC00084F83900FFF730FBA6848146E68426E0EC
:100DD0000120BDE8F883E08C401EE084A0684B460B
:100DE000B0F5805F4FF000024FF080012046009781
:100DF00003D000F053F9E8B90DE000F04FF9C8B99D
:100E000028882168C0F308004860206908B16D1C7B
:100E100005E0AD1C03E0216815F8010B4860E08C8B
:100E20000028D8D14B46002240212046009700F0F0
:100E300035F908B10320CCE7202084F8390084F884
:100E400038800020C5E70220C3E7FEE700B585B083
:100E500000200190029003901048816941F0100138
:100E60008161816901F010010491816941F02001E3
:100E70008161816901F020010491816941F00401DF
:100E800081618069694600F0040004904FF40050CD
:100E900000900348FFF7D2F905B000BD00100240F2
:100EA00000100140FEE7704710B5502080F3118814
:100EB000BFF34F8FBFF36F8F01F082FF18B104496A
:100EC0004FF080500860002080F3118810BD0000B2
:100ED00004ED00E030B58FB028216846FFF787F9B0
:100EE00014210AA8FFF783F901210804CDE90010B5
:100EF0000024029402250491CDE907504FF4E0103C
:100F000009906846FFF75AFC0F20CDE90A056802F0
:100F1000CDE90C4002210AA80E94FFF743FB0FB065
:100F200030BD00000D48016841F0010101604168D9
:100F30000B4A1140416001680A4A11400160016892
:100F400021F480210160416821F4FE0141604FF4E9
:100F50001F0181600449C00308607047001002400F
:100F60000000FFF8FFFFF6FE08ED00E00148FFF784
:100F7000E5BD0000D8000020F0B50268164B174C04
:100F8000174D4FF08047984205D0B84203D0A04299
:100F900001D0A84203D122F070064A683243984239
:100FA00005D0B84203D0A04201D0A84203D122F418
:100FB0004074CA6822434C6922F0800222430260D6
:100FC0008A68C2620A688262984201D10969016333
:100FD00001214161F0BD0000002C014000040040EF
:100FE000000800402DE9F041044600680169E2680C
:100FF00021F44051114301612169A06808436169EE
:1010000008432168CA6841F20C639A430243CA60EC
:1010100020684169A26921F44071114341611E4970
:10102000206864253226884202D1FFF781FB01E067
:10103000FFF76EFB00EBC00101EB001160686FF081
:1010400018078000B1FBF0F2B2FBF5F2B1FBF0F350
:101050007A4303EB8202B1FBF0F306EB0212B2FB20
:10106000F5F2B3FBF5F302F0F00202EB0312B1FB71
:10107000F0F3B1FBF0F0B0FBF5F0784303EB800048
:1010800006EB0010B0FBF5F0216800F00F001044F3
:101090008860BDE8F0810000003801402DE9F04192
:1010A000984617460E460446069D1DE0681C1BD058
:1010B0002DB1FFF7B9F9A0EB0800A84214D92068B8
:1010C000C16821F4D071C1602068416921F001013B
:1010D0004161202084F8390084F83A00002084F827
:1010E00038000320BDE8F0812068006836EA00007F
:1010F00004D00020B842D9D00020F3E70120F9E75E
:10110000FEE70907090E002804DB00F1E02080F863
:101110000014704700F00F0000F1E02080F8141D6B
:10112000704702E008C8121F08C1002AFAD17047B0
:101130007047002001E001C1121F002AFBD1704757
:10114000FFF780F9FFF7C6FEFFF780FE1948184940
:101150000C2201604FF4E131416000218160C160E7
:10116000C0E904128161C161FFF7A9FD00F048F8F0
:101170000121114A084600F0B9F8104C0E4A00212E
:10118000E0606C3A0E4800F041F90B4A2060483AA2
:1011900000210C4800F03AF9074A6060243A002127
:1011A000094800F033F9A06000F046F8FEE70000BF
:1011B0000044004098000020E831000800000020B2
:1011C0009D1E0008091D0008D51D000810B5EFF38D
:1011D000058149B9EFF3108131B90849096802293D
:1011E00005D1EFF3118111B16FF0050403E0002484
:1011F00008B100F0E3FF204610BD000070000020A1
:10120000EFF3058058B9EFF3108040B90949086839
:10121000022801D030B109E0EFF3118030B16FF056
:101220000500704701200860002070474FF0FF3034
:10123000704700007000002010B5EFF3058060B922
:10124000EFF3108048B90B490868022802D0012842
:1012500006D00BE0EFF3118040B16FF0050010BD38
:101260000220086001F05AF8002010BD4FF0FF3056
:1012700010BD000070000020F8B50D460024211FAD
:101280004E1C00280ED000BFEFF305824AB9EFF3E1
:10129000108232B9134A1268022A17D1EFF3118271
:1012A000A2B10DB10C461BE000216A46009101F08D
:1012B000D7FB012813D1009890B10B494FF0805013
:1012C0000860BFF34F8FBFF36F8F09E0294601F02D
:1012D00015FC012804D015B16FF0010400E034467C
:1012E0002046F8BD7000002004ED00E0F8B514467B
:1012F00003460E464FF00005EFF30580E8BBEFF321
:101300001080D0BB24480068022802D1EFF311807E
:1013100098BB93B39E423DD84CB1A0680028E068CA
:1013200003D0502836D3012002E008B132E000207B
:10133000012B05D010B31846A26801F0DEF820E0BA
:1013400040B103200090002211460120A36801F063
:1013500018F904E003220021012001F0EEF8050055
:1013600018D086B100231A46194601F081F90128E8
:1013700009D0284600F0D4FE00250BE0184601F005
:101380009FF8050006D00CB1216800E00021284636
:1013900000F0B2FE2846F8BD7000002038B50024E9
:1013A000E51E002804D000BFEFF3058169B902E013
:1013B0006FF0030423E0EFF3108131B9114909689C
:1013C000022914D1EFF3118189B1002100916946FE
:1013D00001F05CFA012811D1009880B10A494FF060
:1013E00080500860BFF34F8FBFF36F8F07E000237B
:1013F0001A46194601F03CF9012800D02C46204637
:1014000038BD00007000002004ED00E0F0B585B0AC
:101410004FEA01034FF00004EFF305810394A1BBF1
:10142000EFF3108189BB21490968022902D1EFF34A
:10143000118151BB48B3802618218DF8104004ADAE
:1014400042B3176807B13D4697691FB139467F1E01
:10145000382F02D21779FF0702D0002005B0F0BD67
:10146000576907B1BE08D2F808C0BCF1000F0DD013
:10147000D4685C2C18D312693AB137B18DE80610E4
:101480003246294601F05DFC03900DE0D7685FB954
:1014900012694AB903AACDE90012B2B2294601F095
:1014A00023FC012800D003940398D7E770000020A4
:1014B0002DE9F041134C0F46054666692068001D72
:1014C00000F020FD681C07D137B12168BDE8F0416C
:1014D0000D48091D00F066BD20683544B5424560E1
:1014E000216805D2A068BDE8F041091D00F042BDA9
:1014F0006068091D00F03EFD206B854200D2256327
:10150000BDE8F08120000020080600202DE9F04110
:10151000054600F053FD2D4C2069401C20612068D9
:101520002B4F10B1E06930B32BE025602069012812
:1015300027D1002606EB860007EB800000F00CFDAB
:10154000761C382EF6D3234800F006FD21481430CF
:1015500000F002FD1F48283000F0FEFC1D483C3022
:1015600000F0FAFC1B48503000F0F6FC19486060AF
:101570001430A06005E02068E96AC06A884200D89B
:101580002560E06A401CE0626864E86AA1698842FC
:1015900000D9A06100EB800007EB8000291D00F05E
:1015A00001FD00F02BFDE06900280CD02068E96AFD
:1015B000C06A884207D208494FF080500860BFF3E4
:1015C0004F8FBFF36F8FBDE8F08100002000002037
:1015D00058010020B805002004ED00E038B500F007
:1015E000EDFC104CA068C8B90F4800F0B5FC0E48DF
:1015F000143000F0B1FC0C482060143060600A4BDD
:1016000000202833009003F1500210210A2000F03E
:10161000B8FFA06010B105A100F06EFDBDE8384034
:1016200000F0ECBC5C0000201C060020546D7251E0
:101630000000000030B4026C0B46002A0BD0C168D9
:101640001144C1604468A14201D30168C16030BC4B
:101650001846FEF7B3BD30BC70472DE9F041856BED
:10166000174604460026026C82B1C7B1E068FEF757
:10167000A5FDE168206C091AE1602268914202D25E
:101680006168081AE060022F16D017E02068A8B938
:10169000606801F0F9FB0646002060600EE0A0687B
:1016A000FEF78CFD216CA0680844A0606168884248
:1016B00004D32068A06001E005B16D1E6D1CA56318
:1016C0003046BDE8F08110B5044690F8590058B195
:1016D00001280CD002280FD0502080F31188BFF3CE
:1016E0004F8FBFF36F8FFEE7206B00F09BFC20460F
:1016F000BDE8104000F096BC10BD000010484FF44B
:101700004061420706D0C01D0D4920F00700411A74
:10171000C1F540610B4A00230144C2E900030839C6
:10172000103A21F0070111604B600B600B1AC0E901
:10173000001393604FF000405360D060704700008A
:10174000EC0D002084000020144E154CA6F29C479E
:101750004FF08058DFF84C9012E000BF00F02EFCF4
:10176000F068C568281D00F0CDFB2069401E20618F
:10177000E068401EE06000F041FC2846FFF7A3FF50
:10178000E0680028EAD138680128F9D9C9F8008052
:10179000BFF34F8FBFF36F8FF2E70000F405002017
:1017A0002000002004ED00E070B51D46049C51B1FE
:1017B000C4F80020C4E90F010121204600F014FF05
:1017C00084F84C5070BD2460F4E72DE9F0470E46D4
:1017D000DDE909841746824691009946089DA522B5
:1017E000206BFEF7FDFC6FF00301206B01EB87011E
:1017F000084420F00707780707D0502080F31188AD
:10180000BFF34F8FBFF36F8FFEE72218315C82F872
:101810003410315C11B1401C1028F6D3002684F836
:101820004360382D00D33725E562C4E91356201DE7
:1018300000F09DFB04F1180000F099FB2461C5F154
:1018400038006462A061666584F858604A46514673
:10185000384600F047FA2060B8F1000F01D0C8F810
:101860000040BDE8F087000030B5114900E01146A6
:101870000A688242FBD34B685C18844203D14068FB
:1018800018444860084643681C18944209D1084C23
:10189000103C2468A24209D052681A4442600A6887
:1018A00012680260814200D0086030BD0460F9E730
:1018B0008400002070B5002441600B4D006191420E
:1018C00006D8D11A8269914206D2011D686807E0E4
:1018D0009A4203D2994201D3012403E0011D2868F2
:1018E00000F048FB204670BD5C00002010B50446A7
:1018F00000F064FBA06B28B15FF0000400F07EFBF9
:10190000204610BD0124F9E730B589B0304D55E0CF
:101910000498002806DADDE90601059A9047049844
:1019200000284BDB069C606910B1201D00F0EAFA2C
:1019300002A800F0B9F8024604980A283ED2DFE86F
:1019400000F00505053D263705053D260598A169EA
:10195000034601442046FFF7ADFF00B3616A20460D
:101960008847E069012829D1002000900598A169E5
:10197000002342181946204601F0CCFB78B95020CC
:1019800080F31188BFF34F8FBFF36F8FFEE7059889
:10199000A06128B1811813462046FFF78BFF0DE0A8
:1019A000502080F31188BFF34F8FBFF36F8FFEE796
:1019B00094F82C0010B9204600F034FB002204A952
:1019C000A86800F0B1FF0028A2D109B030BD000026
:1019D0005C0000202DE9FC410F46054600F0E2FCCA
:1019E00001A800F061F80446019818B101F000FB6D
:1019F000BDE8FC81224EAFB170680068A8B3002733
:101A0000291B3A46B06800F0B7FB01F0F1FA002854
:101A1000EED11C494FF080500860BFF34F8FBFF3E9
:101A20006F8FE5E7A542EBD801F0E2FA3068274670
:101A3000C068C468201D00F065FAE069012810D173
:101A4000A0692B4641193A462046FFF733FF40B1C3
:101A500000200346014600902A46204601F05AFB2A
:101A600020B1616A20468847C2E707E0502080F332
:101A70001188BFF34F8FBFF36F8FFEE70127BFE7DA
:101A80005C00002004ED00E006484168096829B1C7
:101A90004168C968C9684968016370474FF0FF3100
:101AA000FAE700002000002070B5054601F082F939
:101AB000064E04463069844203D200F009F8012042
:101AC00000E0002028602046346170BD5C000020EA
:101AD000F8B5194D1FE0C068C4680668201D00F005
:101AE00011FA616A20468847E069012813D1A0698C
:101AF0003044B04206D924616060211D286800F09E
:101B000039FA08E00020034601460090324620469C
:101B100001F000FB38B1286801680029DBD1696851
:101B2000C5E90010F8BD502080F31188BFF34F8F36
:101B3000BFF36F8FFEE700005C000020084840689C
:101B4000401C4FF0500080F3118804D0BFF34F8F3A
:101B5000BFF36F8FFEE7BFF34F8FBFF36F8FFEE7CB
:101B60008C000020074C2068016841B1C06800214A
:101B7000D0F80000FFF72EFFFFF7C6FEF3E70121C4
:101B80000020F7E75C0000202DE9F041044600F05A
:101B900015FA94F9455004F1240609E0606A48B149
:101BA000304601F0EDF908B100F036FB6D1E6DB264
:101BB000002DF3DC4FF0FF3684F8456000F01EFA8C
:101BC00000F0FCF994F9445004F1100709E0206991
:101BD00048B1384601F0D4F908B100F01DFB6D1E84
:101BE0006DB2002DF3DC84F84460BDE8F04100F0F4
:101BF00005BA00002DE9F0410546002700F0D2FBB0
:101C0000314E306808B9FFF779FDF06805424BD1D5
:101C1000C5B3083568070ED005F00700C0F108000D
:101C20000544680707D0502080F31188BFF34F8F19
:101C3000BFF36F8FFEE72DB37068854234D822481A
:101C4000103001460C6801E020460C466168A9424C
:101C500002D221680029F7D131688C4224D007686C
:101C60002168016060680837411B10290FD960198D
:101C7000420708D0502080F31188BFF34F8FBFF385
:101C80006F8FFEE710E041606560FFF7EDFD616872
:101C90007068401A7060B268904200D2B060F0681C
:101CA00001430020C4E9000101F0A2F9780707D040
:101CB000502080F31188BFF34F8FBFF36F8FFEE783
:101CC0003846BDE8F081000074000020044908682F
:101CD00018B10868026D521C026508687047000060
:101CE0002000002010B5031F4FF080741C601B1FE4
:101CF00021F001011960191F024B0B6014394038A3
:101D00000A6010BD3D1B0008164C4FF0FF364FF423
:101D1000FA7715A52846FEF775FA82B2642329469C
:101D20001748FFF735F83146E068FFF7A5FA15A523
:101D30002846FEF767FA82B2642329461048FFF767
:101D400027F818A52846FEF75DFA82B264232946D3
:101D50000B48FFF71DF8E068FFF720FB3846FFF758
:101D600035FAD6E70000002052756E6E696E672066
:101D700048696768207461736B2E0D0A00000000CB
:101D80009800002053656D6170686F726520616313
:101D90007175697265642062792048696768210DF0
:101DA0000A0000004C656176696E672048696768C3
:101DB000207461736B20616E642072656C65617361
:101DC000696E672073656D6170686F72652E0D0AAC
:101DD0000A0000001B4F1C4C4FF0FF384FF4005618
:101DE0001AA52846FEF70EFA82B2642329461C483B
:101DF000FEF7CEFF4146E068FFF73EFA19A52846F8
:101E0000FEF700FA82B2642329461548FEF7C0FFA8
:101E10003D4631462846FEF701FB0028F9D119A5B9
:101E20002846FEF7EFF982B2642329460C48FEF7F4
:101E3000AFFFE068FFF7B2FA4FF4FA70FFF7C6F9A8
:101E4000CEE70000001001400000002052756E6EC9
:101E5000696E67204C6F77207461736B2E0D0A00DA
:101E60009800002053656D6170686F726520616332
:101E7000717569726564206279204C6F77210D0A53
:101E8000000000004C656176696E67204C6F77201A
:101E90007461736B2E0D0A0A000000004FF4FA758E
:101EA0000BA42046FEF7AEF982B2642321460E4809
:101EB000FEF76EFF0DA42046FEF7A4F982B264235C
:101EC00021460948FEF764FF2846FFF77FF9E7E758
:101ED00052756E6E696E67204E6F726D616C207404
:101EE00061736B2E0D0A0000980000204C6561762E
:101EF000696E67204E6F726D616C207461736B2E1A
:101F00000D0A0A00D0E9013201699A60D0E9012383
:101F10005A604A68824201D182684A6000220261A6
:101F20000868401E0860086870470000034B0360A3
:101F300003F15C00086080201060704734070020C7
:101F4000044B036003F15C0008604FF48070106084
:101F5000704700009009002000F108014FF0FF32A7
:101F6000C0E90112C16001610021016070470021D8
:101F70000161704730B50B685A1C02D000F10802AD
:101F800002E0026904E02246546825689D42FAD9BD
:101F900053684B6099608A60516008610168491C10
:101FA000016030BD42684A6093688B6093685960F5
:101FB000916008610168491C01607047502080F3FE
:101FC0001188BFF34F8FBFF36F8F0A494868401CD9
:101FD000486001280CD10848006810F0FF0F07D0B6
:101FE000502080F31188BFF34F8FBFF36F8FFEE750
:101FF000704700008C00002004ED00E008494868AC
:1020000028B1401E486001D180F3118870475020EC
:1020100080F31188BFF34F8FBFF36F8FFEE700008F
:102020008C00002070B5002827D0144DA0F10804C2
:102030006168E868014207D1502080F31188BFF33E
:102040004F8FBFF36F8FFEE722683AB1502080F3C5
:102050001188BFF34F8FBFF36F8FFEE7814361603D
:1020600000F0A0F960686968084468602046FFF7DE
:10207000FBFBBDE8704000F0BBBF70BD74000020EA
:102080004FF0E02000210161816105494FF47A722F
:102090000968B1FBF2F1491E4161072101617047F6
:1020A0001C00002010B5FEF773F8114910280ED35C
:1020B00000F1E02090F8F0030A78904207D2502017
:1020C00080F31188BFF34F8FBFF36F8FFEE709488E
:1020D0000068896800F4E060884207D9502080F3E6
:1020E0001188BFF34F8FBFF36F8FFEE710BD000065
:1020F0008C0000200CED00E010B5084B002200BF62
:1021000053F832401CB1521C082AF9D310BD43F8D1
:10211000321003EBC201486010BD0000180100201E
:1021200010B504000AD000F013F894F84600002817
:102130000CD12046BDE81040FFF774BF502080F35B
:102140001188BFF34F8FBFF36F8FFEE710BD000004
:10215000084A002102EBC1035B68834206D10020DC
:1021600042F8310002EBC10148607047491C082960
:10217000F0D370471801002070B515460E4604468E
:10218000FFF71CFF94F944100020491C01D184F88A
:10219000440094F94510491C01D184F84500FFF72B
:1021A0002DFFA06B28B92A46314604F1240000F027
:1021B00051F82046BDE87040FFF7E6BC10B50200BC
:1021C00014D00F48806B38B1502080F31188BFF3D2
:1021D0004F8FBFF36F8FFEE700F0E4F80021104649
:1021E000FFF766F900F004FF002807D105494FF01A
:1021F00080500860BFF34F8FBFF36F8F10BD00009A
:102200002000002004ED00E002498A6A026049696A
:10221000416070472000002001490120486270475A
:102220002000002010B50C4650B10949096818314A
:10223000FFF7A0FE2046BDE810400121FFF738B9A6
:10224000502080F31188BFF34F8FBFF36F8FFEE7ED
:102250002000002070B514460D4668B10A4909688F
:102260001831FFF79FFE0CB14FF0FF35214628468D
:10227000BDE87040FFF71CB9502080F31188BFF310
:102280004F8FBFF36F8FFEE72000002070B5040072
:102290003ED0226DA2B1E06C884200D30146E06AD4
:1022A000884235D0012A33D11A4D2A6894420FD181
:1022B000502080F31188BFF34F8FBFF36F8FFEE77D
:1022C000502080F31188BFF34F8FBFF36F8FFEE76D
:1022D000E162A269002A02DBC1F13801A1610E4E60
:1022E00000EB8000616906EB8000814210D1201D67
:1022F000FFF708FEE06AA969884200D9A86100EBEF
:10230000800006EB8000211DBDE87040FFF74ABE4B
:1023100070BD0000200000205801002030B587B0BB
:102320000024039405AA04A903A80494FFF7FEFD62
:10233000DDE903010094CDE90110002315A1174840
:10234000059A00F0FEFC164D002868631FD000F0CF
:10235000B1FE012809D0401C19D1502080F311880A
:10236000BFF34F8FBFF36F8FFEE7502080F31188CC
:10237000BFF34F8FBFF36F8F4FF0FF302863012003
:10238000E8616C6107B0BDE8304000F045B807B0C7
:1023900030BD000049444C450000000049170008CA
:1023A000200000200248816B491C816370470000B7
:1023B00020000020164810B5816B11B10121416247
:1023C00010BD002141628169124A01E0B9B1491E84
:1023D00001EB810352F82330002BF7D001EB81038E
:1023E00002EB830202F1080453685B685360A34266
:1023F00001D15B685360DA680260816110BD5020D2
:1024000080F31188BFF34F8FBFF36F8FFEE700009B
:1024100020000020580100201CB5264908780190B2
:10242000FF20087008788DF800009DF800009DF8E6
:10243000002000F0F000904207D0502080F3118877
:10244000BFF34F8FBFF36F8FFEE79DF800001A4B6D
:1024500000F0500018700720986005E09DF80020FB
:1024600052008DF80020401E9DF800201206F5D481
:102470009860032807D0502080F31188BFF34F8F56
:10248000BFF36F8FFEE74FF44070986001980870BB
:102490000A48016841F470010160016841F070412F
:1024A0000160FFF7EDFD00205860FDF73BFE0020C6
:1024B0001CBD000000E400E08C00002020ED00E0E6
:1024C00010B50C4648B184420FD9502080F31188D2
:1024D000BFF34F8FBFF36F8FFEE7502080F311885B
:1024E000BFF34F8FBFF36F8FFEE70222002100F092
:1024F00024F8002800D0846310BD38B50C4648B1DC
:1025000084420FD9502080F31188BFF34F8FBFF35F
:102510006F8FFEE7502080F31188BFF34F8FBFF31A
:102520006F8FFEE70221134600220091114600F052
:1025300028F8002800D0846338BDF8B517460E4649
:10254000050014D0DEB105FB06F05030FFF752FB5A
:1025500004000AD0002084F8460004F150023B46F3
:10256000314628460094FFF71FF92046F8BD502059
:1025700080F31188BFF34F8FBFF36F8FFEE700200A
:10258000E3E738B5049D18B153B1CAB181B120E079
:10259000502080F31188BFF34F8FBFF36F8FFEE79A
:1025A000502080F31188BFF34F8FBFF36F8FFEE78A
:1025B000502080F31188BFF34F8FBFF36F8FFEE77A
:1025C00039B1502080F31188BFF34F8FBFF36F8F65
:1025D000FEE750241C46012384F846302B46009425
:1025E000FFF7E2F8204638BD70B50D46040025D04F
:1025F000FFF7E4FCD4E90F20216802FB00116160C1
:102600000021A1632168A1600A46D4E90F01401EA0
:1026100000FB0121E16021464FF0FF3001F8440F3B
:10262000487004F110008DB1FFF796FC04F124000E
:10263000FFF792FCFFF7E2FC012070BD502080F311
:102640001188BFF34F8FBFF36F8FFEE72169002919
:10265000F0D000F095FC0028ECD004494FF08050F9
:102660000860BFF34F8FBFF36F8FE3E704ED00E027
:102670002DE9FF4782B01D468A464FF0000804004E
:1026800003D0BAF1000F08D011E0502080F3118878
:10269000BFF34F8FBFF36F8FFEE7206C38B1502030
:1026A00080F31188BFF34F8FBFF36F8FFEE7022DCA
:1026B0000AD1E06B012807D0502080F31188BFF3C6
:1026C0004F8FBFF36F8FFEE700F066FB3F4F4FF079
:1026D00000094FF0805648B9049838B1502080F373
:1026E0001188BFF34F8FBFF36F8FFEE7FFF766FCD4
:1026F000A06BE16B884207D3022D05D00498D0B1BE
:10270000B8F1000F1AD01EE02A4651462046FEF7C7
:10271000A4FF616A19B104F1240000F031FC20B17A
:102720003E60BFF34F8FBFF36F8FFFF767FC012051
:1027300006B0BDE8F087FFF761FC22E06846FFF7CE
:1027400063FD4FF00108FFF759FCFFF72BFEFFF781
:1027500035FC94F94400401C01D184F8449094F96C
:102760004500401C01D184F84590FFF747FC04A9BF
:10277000684600F07FFA30B12046FFF705FA00F016
:1027800037FC0020D4E7FFF719FCA06BE16B88420F
:1027900013D1FFF733FC04F110000499FFF742FD59
:1027A0002046FFF7F1F900F023FC00289ED13E609F
:1027B000BFF34F8FBFF36F8F98E7FFF71FFC2046E3
:1027C000FFF7E2F900F014FC90E7000004ED00E0F0
:1027D0002DE9F0471F4690468946040003D0B9F121
:1027E000000F08D011E0502080F31188BFF34F8F05
:1027F000BFF36F8FFEE7206C38B1502080F3118853
:10280000BFF34F8FBFF36F8FFEE7022F0AD1E06B4C
:10281000012807D0502080F31188BFF34F8FBFF3FA
:102820006F8FFEE7FFF73EFC5020EFF3118680F339
:102830001188BFF34F8FBFF36F8FA06BE16B88429E
:1028400006D3022F04D0002086F31188BDE8F0875C
:1028500094F945503A4649462046FEF7FEFE681C6C
:1028600004D06D1C84F845500120EDE7606A002813
:10287000FAD004F1240000F083FB0028F4D0B8F172
:10288000000FF1D00121C8F80010EDE770B50E4639
:10289000040009D0206C78B1502080F31188BFF378
:1028A0004F8FBFF36F8FFEE7502080F31188BFF387
:1028B0004F8FBFF36F8FFEE7206848B9606838B16B
:1028C000502080F31188BFF34F8FBFF36F8FFEE767
:1028D000FFF7E8FB5020EFF3118580F31188BFF379
:1028E0004F8FBFF36F8FA16BE06B884218D994F9BB
:1028F0004500491CA163411C04D0401C84F84500DC
:1029000001200EE0606A0028FAD004F1240000F0F3
:1029100037FB0028F4D0002EF2D001203060EFE722
:10292000002085F3118870BD2DE9F747002683B09C
:102930008A46040003D0BAF1000F08D011E05020FD
:1029400080F31188BFF34F8FBFF36F8FFEE7206CCA
:1029500038B1502080F31188BFF34F8FBFF36F8FD2
:10296000FEE700F019FADFF8F4804FF000094FF0AD
:10297000805748B9059838B1502080F31188BFF3CB
:102980004F8FBFF36F8FFEE7FFF718FBA56BC5B145
:1029900051462046FEF74EFE6D1EA563206950B1DC
:1029A00004F1100000F0ECFA28B1C8F80070BFF391
:1029B0004F8FBFF36F8FFFF721FB012006B0BDE8FB
:1029C000F087059808B11EB106E0FFF717FB27E076
:1029D0006846FFF719FC0126FFF710FBFFF7E2FC42
:1029E000FFF7ECFA94F94400401C01D184F84490BC
:1029F00094F94500401C01D184F84590FFF7FEFA98
:102A000005A9684600F036F9002820460AD0FFF7ED
:102A1000BBF800F0EDFA2046FEF768FF0028B3D0BF
:102A20000020CBE7FEF762FF90B104F12400059986
:102A3000FFF7F8FB2046FFF7A7F800F0D9FA0028C7
:102A4000A2D1C8F80070BFF34F8FBFF36F8F9BE721
:102A50002046FFF799F800F0CBFA95E704ED00E087
:102A60002DE9F04790468946040003D0B9F1000FE4
:102A700008D011E0502080F31188BFF34F8FBFF3CF
:102A80006F8FFEE7206C38B1502080F31188BFF3C0
:102A90004F8FBFF36F8FFEE7FFF704FB5020EFF37C
:102AA000118680F31188BFF34F8FBFF36F8FA76B31
:102AB000F7B194F9445049462046FEF7BBFD7F1E0E
:102AC000A763681C04D06D1C84F84450012010E0FA
:102AD00020690028FAD004F1100000F051FA002813
:102AE000F4D0B8F1000FF1D00121C8F80010EDE7E3
:102AF000002086F31188BDE8F08700002DE9F3433C
:102B0000002683B00400354609D0206C78B15020EF
:102B100080F31188BFF34F8FBFF36F8FFEE7502014
:102B200080F31188BFF34F8FBFF36F8FFEE700F084
:102B300033F9DFF83C814FF000094FF0805748B976
:102B4000049838B1502080F31188BFF34F8FBFF342
:102B50006F8FFEE7FFF732FAA06BC8B1401EA0638B
:102B6000206810B9FFF7B2F86060206950B104F135
:102B7000100000F005FA28B1C8F80070BFF34F8FBD
:102B8000BFF36F8FFFF73AFA012005B0BDE8F0837D
:102B9000049808B166B10FE03DB1502080F3118870
:102BA000BFF34F8FBFF36F8FFEE7FFF727FA5DE0AC
:102BB0006846FFF729FB0126FFF720FAFFF7F2FB33
:102BC000FFF7FCF994F94400401C01D184F84490CB
:102BD00094F94500401C01D184F84590FFF70EFAA6
:102BE00004A9684600F046F80028204612D0FEF7F7
:102BF000CBFF00F0FDF92046FEF778FE0028A9D0B3
:102C00009DB3FFF7DBF9606A50B3206B0068C0F139
:102C1000380126E0FEF76AFEE0B1206838B9FFF718
:102C2000CDF9606800F070F90546FFF7E7F904F1A7
:102C300024000499FFF7F6FA2046FEF7A5FF00F0FE
:102C4000D7F9002886D1C8F80070BFF34F8FBFF3C3
:102C50006F8F7FE72046FEF797FF00F0C9F979E70D
:102C600000216068FFF712FB9FE7FFE700208CE779
:102C700004ED00E02DE9F0410C46050011D0C4B18F
:102C8000FFF79CF9174B5A696E682068911B471C27
:102C900017D02F689B6A9F4219D0964217D80124FB
:102CA00010E0502080F31188BFF34F8FBFF36F8F78
:102CB000FEE7502080F31188BFF34F8FBFF36F8F73
:102CC000FEE70024FFF79AF92046BDE8F08188422C
:102CD00005D9401A20602846FFF796FAF1E7002050
:102CE0002060DCE7200000202DE9FF5F8346DDE95E
:102CF0000E87994616468A469000FEF77BFF050030
:102D00001CD05C20FEF776FF040014D00020256361
:102D100084F85900CDE90240CDE900874B463246A0
:102D200051465846FEF751FD2046FEF7EFFB0120C5
:102D300004B0BDE8F09F2846FFF774F94FF0FF306C
:102D4000F6E7F0B585B0DDE90B640A9DA6B1DCB10C
:102D50005C2700972663022684F85960002604AF9A
:102D6000CDE90246CDE90057FEF72FFD2046FEF7DC
:102D7000CDFB049805B0F0BD502080F31188BFF35F
:102D80004F8FBFF36F8FFEE7502080F31188BFF3A2
:102D90004F8FBFF36F8FFEE70548C16919B1806B94
:102DA00018B10020704701207047022070470000D2
:102DB00020000020014840697047000020000020EA
:102DC0002DE9F0412E4C0027A06B40B1206A401C39
:102DD0002062606A00B101273846BDE8F08166696B
:102DE000761C666113D16068006838B1502080F3AA
:102DF0001188BFF34F8FBFF36F8FFEE76068A16844
:102E00006160A060A06A401CA062FEF73DFE206BDE
:102E1000DFF87080864209D36068006880B160681E
:102E2000C068C568686886420DD220632068C06AA1
:102E300000EB800158F821000128CAD90127C8E712
:102E40004FF0FF30F1E7281DFFF75CF8A86A18B1D2
:102E500005F11800FFF756F8E86AA169884200D921
:102E6000A06100EB800108EB8100291DFFF79AF8B3
:102E7000E86A2168C96A8842CED30127CCE70000FE
:102E8000200000205801002070B504004FF0000120
:102E900033D01B4D2868844207D0502080F311881E
:102EA000BFF34F8FBFF36F8FFEE7206D38B1401E29
:102EB0002065E36CE26A9A421FD040B11DE05020C9
:102EC00080F31188BFF34F8FBFF36F8FFEE7201D94
:102ED000FFF718F8E06CE062C0F13800A061E06A2A
:102EE000A969884200D9A861064900EB800001EB7E
:102EF0008000211DFFF756F80121084670BD000033
:102F0000200000205801002070B504004FF00000A0
:102F10002BD0194DE16A2A68D26A914226D2A06963
:102F2000002804DB2868C06AC0F13800A061134E95
:102F300001EB8101606906EB8101884211D1201DFE
:102F4000FEF7E0FF2868C06AE062A969884200D9FC
:102F5000A86100EB800006EB8000211DFFF722F83E
:102F600002E02868C06AE062012070BDE16C2A6856
:102F7000D26A9142F8D370BD200000205801002091
:102F800070B5C068C46854B104F118000646FEF775
:102F9000B9FF144DA86B50B13146134815E05020CD
:102FA00080F31188BFF34F8FBFF36F8FFEE7201DB3
:102FB000FEF7A8FFE06AA969884200D9A8610B4919
:102FC00000EB800001EB8000211DFEF7EBFFE06AC3
:102FD0002968C96A884202D90120686270BD002050
:102FE00070BD000020000020E005002058010020F6
:102FF0002DE9F0472C4D00242746A86B38B1FEF789
:10300000DDFFA86B401EA863A86B40B146E05020CE
:1030100080F31188BFF34F8FBFF36F8FFEE72969ED
:10302000224E0120D1B3A6F5916980463068E0B107
:10303000F068C46804F11800FEF764FF201DFEF775
:1030400061FFE06AA969884200D9A86100EB8001AC
:1030500009EB8100211DFEF7A5FFE06A2968C96A16
:103060008842E3D3C5F82480E0E70CB1FEF70CFDFD
:103070002C6A4CB14FEA0806FFF7A2FE00B16E625F
:10308000641EF9D100202862686A38B10849012716
:1030900038070860BFF34F8FBFF36F8FFEF7AEFFA7
:1030A0003846BDE8F087000020000020E005002041
:1030B00004ED00E010B586B0FEF790FA114CA06860
:1030C000B8B100200390049005AA04A903A8FEF754
:1030D00037FFDDE9032102208DE8070000230AA164
:1030E0000B48059AFFF72DFEE06010B106B00120F5
:1030F00010BD502080F31188BFF34F8FBFF36F8F47
:10310000FEE700005C000020546D722053766300DF
:10311000651B00082DE9FF411E46134602000A9D6B
:103120004FF0000016D0144CA768002F0FD0CDE947
:1031300000130292062917DAFFF72EFE02284FF03D
:1031400000030FD000226946A068FFF791FA04B08F
:10315000BDE8F081502080F31188BFF34F8FBFF39B
:103160006F8FFEE72A46EEE700233246694638466F
:10317000FFF72EFBEBE700005C0000202C3200087C
:10318000000000000000000000000000000000003F
:103190008000000018000000000000000000000097
:1031A00020320008000000000000000000000000C5
:1031B0000000000080000000280000000000000067
:1031C000000000003832000800000000000000008D
:1031D000000000000000000080000000100000005F
:1031E0000000000000000000103200080000000095
:1031F00000000000000000000000000000000000CF
:10320000010203040607080900000000010203048C
:1032100062696E5F73656D6170686F726500000052
:10322000686967685F7461736B0000006E6F726D30
:103230005F7461736B0000006C6F775F7461736B18
:103240000000000064320008000000209800000028
:1032500022110008FC32000898000020581D0000D0
:103260003211000800000000000000000000000013
:10327000000000000100000010000000000000003D
:103280000024F40000000000000000000000000026
:10329000000000000000000000000000000000002E
:1032A000000000000000000000000000000000001E
:1032B000000000000000000000000000000000000E
:1032C00000000000000000000000000000000000FE
:1032D00000000000000000000000000000000000EE
:1032E00000000000000000000000000000000000DE
:0C32F00000000000AAAAAAAA000000002A
:04000005080000ED02
:00000001FF
